:020000020000FC
:1000000006C661C01895189509945DC03AC0189548
:1000100042C018951895E5C018951895189518952B
:10002000189572C01895697A40744042405B0290FE
:10003000FFFF7F0000B99FB68A9409F4E5E29FBEF6
:1000400018959FB68A949FBE189520FD939A21FD1E
:10005000949A22FD959AE1E3832C24BC1895A895E7
:1000600018958F12EECFA89511FDEFCFE0916500A6
:10007000852C20FD939821FD949822FD959844BCF1
:1000800018959FB640916300415008F40E7F40934D
:1000900063009FBE18959FB64091640043954093BE
:1000A00064004F7019F4BB2019F0BA949FBE1895E4
:1000B00040916600439540936600409167004395E8
:1000C00040936700F3CF46B557B59EB496FE0DC07A
:1000D0009FB65A5659BD48BD41E84EBD48E048BF9D
:1000E0009FBE18959FB604600BC098B693FCFACFDC
:1000F0009FB63A0148B559B55659641A750A106148
:1001000041EC4EBD9FBE18959FB641B1403669F196
:100110004038B1F1403A69F1483A41F0483B79F052
:10012000483F11F04F1321C045ED20C067FC0DC0C2
:10013000F3B94AEF10FD4FEF4093800016C067FC03
:1001400007C04091800043B9F6CF4FE8409382004A
:100150005E2FE09182004191E093820043B9E7393C
:10016000E52F09F002C045E801C045EC46BF9FBE3F
:100170001895409181004F131461F0938100F5CFE1
:1001800040918100439540938100413019F473B050
:100190006F2EEBCF423011F463B0E7CF433021F440
:1001A00043B1423001F7E1CF4A3061F05E2FECE815
:1001B000E40F43B14083E52F50919600540F5093C4
:1001C0009600D3CF43B15091900056FD006157FD8A
:1001D0000062451B50E9450F5093900040939600F4
:1001E000C4CF9FB64CB1453F59F006FF0DC030F467
:1001F000509183005A9531F4742E18610F7B04C01E
:10020000006451E0509383009FBE189590E578EC10
:10021000A39AC29A939A1ED0E1F7A398089594E600
:1002200074EBA29AC19A949A15D0E1F7A298089516
:1002300098E770EA929A959A0DD0E1F708959CE8B4
:100240007CE8A39AA29AC19A939A04D0E1F7A29863
:10025000A3980895F2BF82B78032E8F39298C298CB
:10026000C19862B3677C62BB60E1F2BFA89582B7B8
:100270008717E8F36A95C9F79A95089500D000D0DA
:1002800000D09FE060E1F2BF81E088BFA89588B709
:1002900080FFFDCF6A95B9F79A95A1F708958091EF
:1002A00087009091880089569A4739F0C7E8D0E0D6
:1002B000E6E285918993C739E1F70895F894EF93C1
:1002C000F5DFEF91789408958091600081BF0F7DF4
:1002D000C7E8D0E080E890E0A895E199FDCF67B746
:1002E00060FDFACFC73981F09FBB8EBB0196E09AC3
:1002F0006DB317F06993F0CF79917DBBF894E29AD2
:100300006713E19A7894E8CFBCDF8FEF81BF08953F
:10031000000C111CAA1C8A95D9F70895869FA12C60
:10032000969FA00CC11DDF1F879FA00CC11DDF1F62
:10033000979FC00DD11D0895E894A1E070E03AD0D8
:10034000A2E071E037D0A4E0C8E8D3E12197879913
:10035000E9F742D0A5E0C8E8D3E121978699E9F70B
:100360003BD056F38E9A969A8CDFA6E070E040D090
:10037000EC01939A3DD093982BD083DFA7E071E0F6
:1003800037D0EC01949A34D0949822D0969879DFA3
:10039000A9E070E02DD0EC01929A2AD0929814D066
:1003A000AAE071E025D0EC01C29A22D0C2980CD00C
:1003B0008E980895C8E8D3E11BD08154904018F07E
:1003C0002197D1F70AC00895C817D90730F40895C6
:1003D0008C179D0710F4089551F4CA2FA39A4FDF8C
:1003E000A3984CDFCA95D1F749DF48DF6894089598
:1003F000F0BF706477B987EC86B9A8953699FECFBF
:1004000084B195B1F6B9089513FD9DC012FD8DC05C
:100410001F7EC3019053660B602763FDA5C007FDD7
:1004200051C0C9E8D0E001C029DF3FD0BC01A89588
:10043000FF9FAA24C93831F49FE160348BE5780727
:1004400098F440C080918900681780918A007807ED
:1004500060F792E2CB3841F080918B006817809171
:100460008C00780710F390E2892EA89514FFFDCF39
:100470001F7E1BD0080E191EAF1E861B970B8056C1
:100480009F4F8154914080F68A9479F783E040DF52
:100490001992A992CDDECB38D9F2F3DEC9DECD3880
:1004A00011F0EFDEC5DE10DF61C0C30103FF089568
:1004B000A3E0880F991FAA95E1F7089513FD43C0A3
:1004C00012FD33C01F76C301903360F003FD11C0ED
:1004D000C0917E00D0917F008C1B9D0B60F4CC27D7
:1004E000DD2716C0963028F0803C62E1960703FDB8
:1004F00078F30460089560917A0070917B00C8E3FE
:10050000D0E00CDFC73583E0D80710F0C7E5D3E0B3
:10051000C0937800D093790001FF03C082E0B82E29
:10052000B6C08CE0B816BF1E0895E3011F7E80910F
:10053000950080FB17F9CC0FC295209649F3CE01A8
:100540006DE373E0DCCFD72D1F76C0E0D03001F330
:10055000CE0160E074E0D3CFC3E0769567959695C1
:100560008795CA95D1F7089588E0082780918B0078
:1005700090918C006091890070918A0003FDECDFFE
:1005800080937E0090937F00681B790B05D0809349
:100590007A0090937B00089585E595E00196A895F3
:1005A0009F3F890721F0C0EEDCEFB8DEB9F7089570
:1005B000F8948CB59DB56091640078B778949038C4
:1005C00072FD6F1FC0916800D0916900A0906A0011
:1005D000809368009093690060936A0000906B00BC
:1005E00010906C0070916D00C0936B00D0936C0004
:1005F000A0926D0080199109670B97306F0728F45E
:1006000080E097E060E0D694C79490386F07A7E544
:10061000B3E0F0F0A1E0B1E27D01A0E8BBEAFF9F0A
:10062000771B0AC0771F001C111C781709061606D5
:1006300018F0781B090A160AAA1FBB1FEE1CFA94B1
:1006400089F7A095B095A63DBF0710F4A6EDB0E0E0
:100650007D0180936E0090936F00609370006695AB
:1006600097958795C0916800D0916900A0906A0025
:1006700070E435D0C0937100D0937200A0927300E3
:1006800049D014FD1BCFC0917800D0917900CE15D0
:10069000DF0508F0E701CC15DD0508F0E60187E588
:1006A00093E08C1B9D0BB1F02096B1F01D7F116083
:1006B00016FF04C0880F991FCC0FDD1F75E29F1332
:1006C0007BE1C09580951E01F8942C017093650024
:1006D000789408951360F2CF1C7F71E3F2CF879F67
:1006E000C10DDF1FAF1E979FC00DD11DAF1E679FAD
:1006F000D00DA11C089580916E0090916F006091C3
:100700007000C0917100D0917200A09073000895A4
:10071000F2DFE5DF79B7072E7B7E79BF70E1F894D1
:10072000DBBDCABD78BF8CB59DB578940160609182
:10073000640078B7903872FD6F1FC81BD90BA60AEA
:10074000A09263000AF40E7F09BE0895279670E117
:10075000F8948CB59DB5C80FD91FDBBDCABD78BF55
:10076000A092630001607894089514FDA7DE00FD57
:10077000FCCF0895F5BD80E488BFEFE29298C2985F
:10078000C19882B3877C82BB0895B09BF0936600CA
:100790008091660085FF0895E0E0F894FCE1859182
:1007A0009491F0E0789401960297A8F3F894F7BB3F
:1007B000F4BBF1BB88E181BDF1BD8091600081BFD8
:1007C0001FCA82E582B985EC86BF0895D3DF59DD63
:1007D000709177007C5F7093770009F40B7F92E152
:1007E0002FCD00240FBEEFE5F4E0FEBFEDBF029277
:1007F000E036F00509F4EEE1E015F005C1F781B748
:1008000080936000A4B6F4BFF8BB86E087BB80E3AA
:1008100085BBF4BB82E082BB8EE381BB82E083BFF9
:1008200081EC8EBDF5BD88E181BD88E081BD29DD0B
:100830004BDD35DDC6DF78947FDDA0FAAF1226F4FC
:10084000E5DCEDDCF5DC1EC0A2FE04C0F1DCDEDC84
:10085000006818C0A1FE02C0F2DC14C0F894A3FE28
:1008600005C0D4DCD3DCE4DCE3DCFBCF07DD4A2DC0
:1008700058E040FFD4DC40FDE2DC01DD46955A95AE
:10088000C1F7F4CFA298A3980D7F70DE84E588BFEE
:1008900089BFF0BD89E189B9549A86E880BD8CB1E1
:1008A0005F9A579A8EDF81EC8EBD89B7806289BFCF
:1008B000BB24137EF0936600F0936700A89514FDA7
:1008C0000AC063DF809167008837C1F78CE38093AB
:1008D0006700AEDCF3CF98DDC0917800D09179004D
:1008E000209631F78AE0B81648F312FFF6BF13FFDF
:1008F0005498812F8C7019F089B78F7D89BF9FDC48
:100900009EDC9DDC0B7F36DF0D7FA29AA398F093CF
:100910006600F0936700A89514FD0EC002FD56DF37
:10092000BB20C9F732DF809167008E31A1F722DF4B
:10093000A8DC7EDC74DCA6CF04FDC0DC05FDC4DCD5
:10094000BDDDBB2041F3209611F314DF80B7886032
:1009500080BFA398A298CEE8D0E06E010260E4D0F8
:10096000F0937400F0937500F093760082E0B82E57
:1009700086E0809362008CE08093610081E085BD19
:1009800017FD39C0D5D081E087B93798C29810FDDE
:10099000929ACCD0379AF894287F226082B39598A7
:1009A00092B38913949A7894C3D080E087B937982A
:1009B000929810FDC19ABAD081E087B93798F8941F
:1009C000287F216082B3949892B38913939A789484
:1009D000AFD0379AC19810FDC29AA8D080E087B9ED
:1009E0003798F894287F246082B3939892B3891340
:1009F000959A789438C09AD0379AF894287F2160D5
:100A000082B3959892B38913939A789491D081E0A8
:100A100087B93798C29810FDC19A88D080E087B90D
:100A20003798F894287F226082B3939892B3891301
:100A3000949A78947DD0379AC19810FD929A76D086
:100A400081E087B93798F894287F246082B394981E
:100A500092B38913959A78946BD080E087B93798D0
:100A6000929810FDC29A80916100803010FF71F160
:100A7000E601209661F18C30C8F483958093610083
:100A8000629686ED90E060917600709175007C5FD3
:100A90007093750021F4605FD9F060937600603147
:100AA00070F0703360F083E290E009C01F7BF09338
:100AB0007600F0937500A3986B9687E593E0C817CE
:100AC000D90710F06C015CCF6E015ACF1CCF3DCF1F
:100AD00051DE0D7FD3DBD2DBB2DBF0DC2096D1F729
:100AE000D1CEEFE282B3877C82BBA39A81E0809370
:100AF00062006AC016FD10C0BC3068F0BBE0AB17E6
:100B000008F4AB2FF8DDC80FD91FA61EC80FD91FD8
:100B1000A61E00DE4CC0A39AF09361007091740091
:100B2000715F16FD7093740010644EC01F7D01C08C
:100B3000106280916200815050F08093620016FF35
:100B400019C0C0E0DFEFAF2E01DEA3E02FC0EF320F
:100B500011F4E1E3A39816FD43C07BE1D9DD05DE86
:100B600079E5D6DD00FFBDCF14FDA8DC68B16127B3
:100B700065FDF8CFC0DDA92FB62FB695A795B69520
:100B8000A795A330BF0750F051F0AA31BF0708F076
:100B9000AAE1AC3020F073E3BBDD08C0A3E0C80FCE
:100BA000D91FA61EC80FD91FA61EB4DDBA2F00FF7D
:100BB000A1CF14FD83DC68B1612765FD03C0AB17CD
:100BC000AF1FF5CFAA9599F7F3DC16FFCEDD809124
:100BD00062008F131E7FBF1208958F918F9193CE65
:100BE000C0E0D0E070E0A72E80916100823030F448
:100BF0007091740080E090E860E071DDA7DDB5DD04
:100C0000C0E0D8EB7BE0A72EA1DDAFEFCFCFE9CDE1
:101C0000E4E0FFE5FEBFEDBF00E0ECEBFEE0C0E886
:101C1000D0E0A0E6B0E042E045BD5CEE539571F047
:101C200040EC04BD48BFA03619F0E8B6E6FC46C05B
:101C3000B099F9CF04BD48BFE8B6E6FCE1C1B09B5E
:101C4000FBCF04BD48BFE8B6E6FCE8CFB099FBCFB8
:101C500034B404BD48BFE8B6E6FCD2C1B09BFBCFAC
:101C600024B4022C030C802C07940694402C069478
:101C70008008809420943094409460EE83E084BC8B
:101C800048BFE8B6E6FCBCC1B09BFBCF84BC48BFF4
:101C9000E8B6E6FCC3CFB099FBCF0894E8B6E6FC03
:101CA00023C0B09BFBCFE8B6E6FCB8CFB099FBCF22
:101CB0008894E8B6E6FC18C0B09BFBCF43BC87E134
:101CC000C09AB89A34BC48BFE8B6E6FEFDCFC098CB
:101CD00024BC48BFE8B6E6FEFDCF8A9589F7C0E68A
:101CE000D0E060E081E00BC0679548F6815068F570
:101CF0005CEE0994CA17DB07D1F0699188E066951C
:101D0000C09A34BC48BFE8B610F0E7FC08BBE6FE5A
:101D1000FACFC09808F0C09A24BC48BFE8B610F0CB
:101D2000E7FC08BBE6FEFACF8A9549F7E3CFC09AF5
:101D300034BC48BFC0E8D0E0A0E6B0E0E8B6E7FEBB
:101D4000FDCFB89808BB6ACF80E060E898CFECEB95
:101D5000FEE0C0E8D0E0F8CF009000000090000066
:101D60000090000000900000009000000090000033
:101D70000090000000900000000000006B3121F78F
:101D8000562E3796E1CF962E56263496DDCF762EF8
:101D900056263496D9CF662E56263496D5CF6E3039
:101DA000B1F656263596D0CF69935626CF3584E0C6
:101DB000D80768F681E0681A700A09F43C96C4CF27
:101DC0006511C5CFC0E8D0E0699199918991FD0175
:101DD0007BE170839182028372E073837EE074837F
:101DE0006583068317966130A1F48BE0838388E0D6
:101DF0008D93EF01ECEDFFE185918D93E43EE1F7EA
:101E0000FE01819161918627EA17FB07D9F78D932F
:101E10009ECF6D3151F5792F90E0039683839283A5
:101E200003970D938A95E9F789916991603380074B
:101E300094E0790779F460878991803059F4699149
:101E400060308EE131F0613083E919F0623087E073
:101E500009F482870D93D5CF8017900709F5D990A3
:101E6000C9905601AA0CBB1CCCCF6330E1F06230A4
:101E700041F2603131F2613121F2663069F3623151
:101E8000F1F1833F73E0970758F4643109F166314B
:101E900069F127966531C1F16331F9F10000000065
:101EA00080EC8683AECF90398FE071F0913982E07B
:101EB00059F092398AE041F0943982E329F0903860
:101EC00080E011F0913861F78D9383E0838399CF9F
:101ED00049D0EF01F5018FD076FDFDCF65916D936F
:101EE0000197E1F75F01FE010D938BCF3BD011E02D
:101EF0003ED06DB36D930197D9F70D9382CF47D044
:101F0000000080E092E0689416E06FEF0EF06991B7
:101F10002ED00197D1F7E89474CF8F7F61E07F01D5
:101F2000F5010990199068D032960297D1F70F0108
:101F3000F501500163E0E03C7FE1F70719F058D06C
:101F4000F7015FCF0BD065E009D061E107D0F8CF92
:101F500077B770FDFDCFE199FECF0895F9DF67BF38
:101F6000E8950895039692838383039708953AD062
:101F7000DFBACEBA0894C01ED01E762FE09A6DB399
:101F8000671312FF08957DBBE29A1CBB08957F0181
:101F9000E0E0FCE163E0E054F0402ED0E1F76F01B7
:101FA000F70108950000000000000000000000009C
:101FB0000000000000000000000000000000000021
:101FC000687474703A2F2F6769746875622E636F36
:101FD0006D2F73696D2D2F7467792F00415652490B
:101FE00053505F3277B770FDFDCFE199FECF089572
:101FF00003D065E001D061E1F5DF67BFE8950895A2
:00000001FF
