:020000020000FC
:10000000C5C45DC018951895099459C036C0189597
:100010003EC01895189575C018951895189518959F
:1000200018956FC01895697A3057B03170449FB6F3
:100030008A9409F4E1E29FBE18959FB68A949FBE08
:10004000189520FD959821FD949822FD9098EDE259
:10005000832C24BC1895A89518958F12EECFA895DF
:1000600011FDEFCFE0916500852C20FD959A21FDD3
:10007000949A22FD909A44BC18959FB640916300D3
:10008000415008F40E7F409363009FBE18959FB6C1
:10009000409164004395409364004F7019F4BB2075
:1000A00019F0BA949FBE189540916600439540930D
:1000B000660040916700439540936700F3CF4CB5CD
:1000C0005DB582990EC09FB640585F4859BD48BD86
:1000D00043E045BF48E048BF9FBE18959FB6046007
:1000E0000CC098B693FCFACF9FB63A0148B559B503
:1000F00040585047641A750A106142E045BF9FBEE0
:10010000189590E578EC939A959817D0E1F70895B3
:1001100094E674EB919A949810D0E1F7089598E7DB
:1001200070EA979A909809D0E1F708959CE87CE8E6
:10013000919A959802D0E1F70895F2BF82B788317D
:10014000E8F362B3657762BB62B3616362BB6CE084
:10015000F2BFA89582B78717E8F36A95C9F79A9511
:10016000089500D000D000D09FE06CE0F2BF81E0A5
:1001700088BFA89588B780FFFDCF6A95B9F79A9593
:10018000A1F70895809184009091850089569A473F
:1001900039F0C4E8D0E0E6E285918993CC38E1F704
:1001A00008958091600081BF0F7DC4E8D0E080E8B1
:1001B00090E0A895E199FDCF67B760FDFACFCC3804
:1001C00081F09FBB8EBB0196E09A6DB317F06993E7
:1001D000F0CF79917DBBF894E29A6713E19A789415
:1001E000E8CFC2DF8FE981BF0895000C111CAA1C63
:1001F0008A95D9F70895869FA12C969FA00CC11DC2
:10020000DF1F879FA00CC11DDF1F979FC00DD11D51
:1002100008951F7EC3019452660B602763FD8CC056
:1002200007FD4DC0C6E8D0E001C09BDF3FD0BC0158
:10023000A895FF9FAA24C63831F49FE1603784E473
:10024000780798F43CC080918600681780918700F9
:10025000780760F792E2C83841F08091880068170B
:1002600080918900780710F390E2892EA89514FFF9
:10027000FDCF1F7E1BD0080E191EAF1E861B970BCD
:1002800088589F4F815F904080F68A9479F783E089
:10029000ACDF1992A99243DFC838D9F265DF3FDF9E
:1002A000CA3811F061DF3BDF7CDF48C0C30103FFC8
:1002B0000895A3E0880F991FAA95E1F708951F7686
:1002C000C301943260F003FD13C0C0917E00D09151
:1002D0007F008C1B9D0B70F4CC27DD2718C0803865
:1002E00064E0960728F080316EE0960703FD68F31E
:1002F0000460089560917A0070917B00CAE2D0E0BA
:100300007ADFC13882E0D80710F0C1E8D2E0C093AC
:100310007800D093790001FF03C082E0B82EA1C01D
:100320008CE0B816BF1E0895C3E076956795969544
:100330008795CA95D1F7089588E0082780918800AD
:1003400090918900609186007091870003FDECDF39
:1003500080937E0090937F00681B790B05D080937B
:100360007A0090937B00089585E595E00196A89525
:100370009F3F890721F0C8EADDEF3DDFB9F7089517
:10038000F8948CB59DB56091640078B778949038F6
:1003900072FD6F1FC0916800D0916900A0906A0043
:1003A000809368009093690060936A0000906B00EE
:1003B00010906C0070916D00C0936B00D0936C0036
:1003C000A0926D0080199109670B803475E0970742
:1003D0006F0728F480E495E060E0D694C7949036E7
:1003E0006F07A1E8B2E0F0F0A0E0B1E27D01A0E685
:1003F000B0EFFF9F771B0AC0771F001C111C7817F6
:100400000906160618F0781B090A160AAA1FBB1F50
:10041000EE1CFA9489F7A095B095A03ABF0710F4A6
:10042000A0EAB0E07D0180936E0090936F0060932E
:100430007000669597958795C0916800D091690086
:10044000A0906A0073E335D0C0937100D09372001E
:10045000A092730049D014FD32CFC0917800D091A2
:100460007900CE15DF0508F0E701CC15DD0508F0B1
:10047000E60181E892E08C1B9D0BB1F02096B1F073
:100480001D7F116016FF04C0880F991FCC0FDD1F60
:1004900071E29F1377E1C09580951E01F8942C01BD
:1004A00070936500789408951360F2CF1C7F7DE20D
:1004B000F2CF879FC10DDF1FAF1E979FC00DD11DCB
:1004C000AF1E679FD00DA11C089580916E00909182
:1004D0006F0060917000C0917100D0917200A09087
:1004E00073000895F2DFE5DF79B7072E7B7E79BFD1
:1004F00070E1F894DBBDCABD78BF8CB59DB578942A
:1005000001606091640078B7903872FD6F1FC81B5E
:10051000D90BA60AA09263000AF40E7F09BE0895C3
:10052000279670E1F8948CB59DB5C80FD91FDBBD37
:10053000CABD78BFA092630001607894089514FD4D
:10054000BEDE00FDFCCF0895F5BD80E488BFEBE280
:1005500082B3857782BB82B3816382BB089582991F
:10056000F09366008091660085FF0895E0E0F894BE
:10057000FCE185919491F0E0789401960297A8F3BC
:10058000F894F7BBF4BBF1BB88E181BDF1BD80916C
:10059000600081BF35CBD8DFE7DD709177007C5FED
:1005A0007093770009F40B7F92E1C1CD00240FBE58
:1005B000EFE5F4E0FEBFEDBF0292E036F00509F48E
:1005C000EEE1E015F005C1F781B780936000A4B6B5
:1005D000F4BFF8BBF7BBF5BBF4BB85E382BB8BEB89
:1005E00081BB82E083BF81E08EBDF5BD88E181BD26
:1005F00088E081BDB9DDD5DDC5DD7894A0FAAF1204
:1006000026F47FDD85DD8BDD1EC0A2FE04C087DD04
:1006100078DD006818C0A1FE02C088DD14C0F8941F
:10062000A3FE05C06EDD6DDD7ADD79DDFBCF99DDE2
:100630004A2D58E040FF6CDD40FD78DD93DD4695A6
:100640005A95C1F7F4CF0D7F79DE84E588BF89BF65
:1006500082E085BF80E48BBFBB24137EF0936600ED
:10066000F0936700A89514FD0AC079DF80916700B8
:100670008837C1F78CE38093670051DDF3CFC9DD84
:10068000C0917800D0917900209631F78AE0B816B1
:1006900048F3812F8C7009F0FBBF48DD47DD46DD54
:1006A0000B7F52DF0D7FF0936600F0936700A895F3
:1006B00014FD0EC002FD6FDFBB20C9F750DF809133
:1006C00067008E31A1F740DF4FDD29DD21DDBBCF93
:1006D000F6DDBB2061F3209631F336DF80B788600A
:1006E00080BF3798CBE6D0E06E010260DDD0F0939A
:1006F0007400F0937500F093760082E0B82E86E0E7
:10070000809362008CE08093610081E085BD17FDDD
:1007100037C0CED083E087B9939810FD979AC6D0A2
:1007200084E087B9F894287F226082B3909A92B3CC
:10073000891394987894BCD082E087B9979810FD7B
:10074000919AB4D083E087B9F894287F216082B36E
:10075000949A92B3891395987894AAD084E087B933
:10076000919810FD939AA2D082E087B9F894287FDF
:10077000246082B3959A92B389139098789436C086
:1007800095D084E087B9F894287F216082B3909A4D
:1007900092B38913959878948BD083E087B9939816
:1007A00010FD919A83D082E087B9F894287F226067
:1007B00082B3959A92B389139498789479D084E00F
:1007C00087B9919810FD979A71D083E087B9F89412
:1007D000287F246082B3949A92B389139098789476
:1007E00067D082E087B9979810FD939A8091610055
:1007F000803010FF69F1E601209659F18C30C8F481
:100800008395809361002E9680EA90E06091760057
:10081000709175007C5F7093750021F4605FD1F07A
:1008200060937600603168F0703358F08AE190E0B0
:1008300008C01F7BF0937600F0937500659681E801
:1008400092E0C817D90710F06C0161CF6E015FCF3D
:1008500028CF43CF79DE0D7F84DC83DC67DC2FDD9E
:100860002096D1F7F0CEEBE282B3816382BB81E0C8
:100870008093620068C016FD0FC0BC3068F0BBE01A
:10088000AB1708F4AB2F21DEC80FD91FA61EC80F67
:10089000D91FA61E29DE4AC0F09361007091740032
:1008A000715F16FD7093740010644DC01F7D01C010
:1008B000106280916200815050F08093620016FFB8
:1008C00018C0C0E0DFEFAF2E2BDEA3E02EC0EB326E
:1008D00009F4EDE216FD43C07BE104DE30DE79E58C
:1008E00001DE00FFC0CF14FDEADC68B1612765FDC1
:1008F000F8CFEBDDA92FB62FB695A795B695A7959E
:10090000A330BF0750F051F0A431BF0708F0A4E1B5
:10091000AC3020F073E3E6DD08C0A3E0C80FD91FB8
:10092000A61EC80FD91FA61EDFDDBA2F00FFA3CF5A
:1009300014FDC5DC68B1612765FD03C0AB17AF1FAF
:10094000F5CFAA9599F71CDD16FFF9DD80916200BD
:100950008F131E7FBF1208958F918F91A2CEC0E09A
:10096000D0E070E0A72E80916100823030F4709169
:10097000740080E090E660E09CDDD2DDE0DDC0E068
:0E098000DAEC78E0A72ECCDDAFEBCFCF0FCEB8
:101C0000E4E0FFE5FEBFEDBF00E0ECEBFEE0C0E886
:101C1000D0E0A0E6B0E042E045BD5CEE539571F047
:101C200040EC04BD48BFA03619F0E8B6E6FC46C05B
:101C30008299F9CF04BD48BFE8B6E6FCE1C1829BBA
:101C4000FBCF04BD48BFE8B6E6FCE8CF8299FBCFE6
:101C500034B404BD48BFE8B6E6FCD2C1829BFBCFDA
:101C600024B4022C030C802C07940694402C069478
:101C70008008809420943094409460EE83E084BC8B
:101C800048BFE8B6E6FCBCC1829BFBCF84BC48BF22
:101C9000E8B6E6FCC3CF8299FBCF0894E8B6E6FC31
:101CA00023C0829BFBCFE8B6E6FCB8CF8299FBCF7E
:101CB0008894E8B6E6FC18C0829BFBCF43BC87E162
:101CC000929A8A9A34BC48BFE8B6E6FEFDCF929855
:101CD00024BC48BFE8B6E6FEFDCF8A9589F7C0E68A
:101CE000D0E060E081E00BC0679548F6815068F570
:101CF0005CEE0994CA17DB07D1F0699188E066951C
:101D0000929A34BC48BFE8B610F0E7FC02BBE6FE8E
:101D1000FACF929808F0929A24BC48BFE8B610F027
:101D2000E7FC02BBE6FEFACF8A9549F7E3CF929A29
:101D300034BC48BFC0E8D0E0A0E6B0E0E8B6E7FEBB
:101D4000FDCF8A9802BB6ACF80E060E898CFECEBC9
:101D5000FEE0C0E8D0E0F8CF009000000090000066
:101D60000090000000900000009000000090000033
:101D70000090000000900000000000006B3121F78F
:101D8000562E3796E1CF962E56263496DDCF762EF8
:101D900056263496D9CF662E56263496D5CF6E3039
:101DA000B1F656263596D0CF69935626CF3584E0C6
:101DB000D80768F681E0681A700A09F43C96C4CF27
:101DC0006511C5CFC0E8D0E0699199918991FD0175
:101DD0007BE170839182028372E073837EE074837F
:101DE0006583068317966130A1F48BE0838388E0D6
:101DF0008D93EF01ECEDFFE185918D93E43EE1F7EA
:101E0000FE01819161918627EA17FB07D9F78D932F
:101E10009ECF6D3151F5792F90E0039683839283A5
:101E200003970D938A95E9F789916991603380074B
:101E300094E0790779F460878991803059F4699149
:101E400060308EE131F0613083E919F0623087E073
:101E500009F482870D93D5CF8017900709F5D990A3
:101E6000C9905601AA0CBB1CCCCF6330E1F06230A4
:101E700041F2603131F2613121F2663069F3623151
:101E8000F1F1833F73E0970758F4643109F166314B
:101E900069F127966531C1F16331F9F10000000065
:101EA00080EC8683AECF90398FE071F0913982E07B
:101EB00059F092398AE041F0943982E329F0903860
:101EC00080E011F0913861F78D9383E0838399CF9F
:101ED00049D0EF01F5018FD076FDFDCF65916D936F
:101EE0000197E1F75F01FE010D938BCF3BD011E02D
:101EF0003ED06DB36D930197D9F70D9382CF47D044
:101F0000000080E092E0689416E06FEF0EF06991B7
:101F10002ED00197D1F7E89474CF8F7F61E07F01D5
:101F2000F5010990199068D032960297D1F70F0108
:101F3000F501500163E0E03C7FE1F70719F058D06C
:101F4000F7015FCF0BD065E009D061E107D0F8CF92
:101F500077B770FDFDCFE199FECF0895F9DF67BF38
:101F6000E8950895039692838383039708953AD062
:101F7000DFBACEBA0894C01ED01E762FE09A6DB399
:101F8000671312FF08957DBBE29A1CBB08957F0181
:101F9000E0E0FCE163E0E054F0402ED0E1F76F01B7
:101FA000F70108950000000000000000000000009C
:101FB0000000000000000000000000000000000021
:101FC000687474703A2F2F6769746875622E636F36
:101FD0006D2F73696D2D2F7467792F00415652490B
:101FE00053505F3277B770FDFDCFE199FECF089572
:101FF00003D065E001D061E1F5DF67BFE8950895A2
:00000001FF
