:020000020000FC
:100000008BC56BC018951895099467C044C01895A6
:100010004CC01895189582C0189518951895189584
:1000200018957CC01895697A40744042405B9FB631
:100030008A9409F4E1E29FBE18959FB68A949FBE08
:10004000189520FD959A21FDAD9A22FD939A20FDE9
:10005000AC9A21FD929A22FD949AE3E3832C24BC6E
:100060001895A89518958F12E8CFA89511FDE9CF9E
:10007000E0916500852C20FDAC9821FD929822FD31
:10008000949844BC27FD189520FD959821FDAD98C6
:1000900022FD939818959FB640916300415008F453
:1000A0000E7F409363009FBE18959FB640916400F9
:1000B0004395409364004F7019F4BB2019F0BA9433
:1000C0009FBE18954091660043954093660040910D
:1000D0006700439540936700F3CF46B557B59EB48C
:1000E00096FE0DC09FB65A5659BD48BD41E84EBD5B
:1000F00048E048BF9FBE18959FB604600BC098B6F5
:1001000093FCFACF9FB63A0148B559B55659641ACF
:10011000750A106141EC4EBD9FBE18959FB64CB15B
:10012000453F59F006FF0DC030F4509180005A95BC
:1001300031F4742E18610F7B04C0006451E05093B9
:1001400080009FBE189590E578ECAD98AC9A17D0DA
:10015000E1F7089594E674EB9398929A10D0E1F742
:10016000089598E770EA9598949A09D0E1F7089570
:100170009CE87CE89398AC9A02D0E1F70895F2BF2E
:1001800082B78032E8F3959AAD9A939AAC98929898
:10019000949860E1F2BFA89582B78717E8F36A9553
:1001A000C9F79A95089500D000D000D09FE060E193
:1001B000F2BF81E088BFA89588B780FFFDCF6A9520
:1001C000B9F79A95A1F708958091840090918500E0
:1001D00089569A4739F0C4E8D0E0E6E285918993E0
:1001E000CC38E1F708958091600081BF0F7DC4E8AD
:1001F000D0E080E890E0A895E199FDCF67B760FD79
:10020000FACFCC3881F09FBB8EBB0196E09A6DB3DC
:1002100017F06993F0CF79917DBBF894E29A671358
:10022000E19A7894E8CFC2DF8FEF81BF0895000C88
:10023000111CAA1C8A95D9F70895869FA12C969F18
:10024000A00CC11DDF1F879FA00CC11DDF1F979F42
:10025000C00DD11D0895E894A1E076E047D0A2E05A
:1002600077E044D0A3E070E041D0A5E0C8E8D3E156
:1002700021978699E9F74CD076F38E9A969A96DF75
:10028000A6E076E04FD0EC01AC9A4CD0AC983CD0D4
:100290008DDFA7E077E046D0EC01929A43D09298A8
:1002A00033D084DFA8E070E03DD0EC01949A3AD0DE
:1002B00094982AD096987ADFA9E076E033D0EC01C2
:1002C000959830D0959A1CD0AAE077E02BD0EC011D
:1002D000AD9828D0AD9A14D0ABE070E023D0EC01FB
:1002E000939820D0939A0CD08E980895C8E8D3E1C3
:1002F00019D08F56904018F02197D1F70AC0089571
:10030000C817D90730F408958C179D0710F4089585
:1003100041F4CA2F18DF47DFCA95E1F744DF43DF16
:1003200068940895F0BF706477B987EC86B9A89592
:100330003699FECF84B195B1F6B9089513FD8BC0FF
:100340001F7EC3019053660B602763FD95C007FDB8
:100350004FC0C6E8D0E001C026DF3FD0BC01A89561
:10036000FF9FAA24C63831F49FE160348BE57807FB
:1003700098F43EC0809186006817809187007807C6
:1003800060F792E2C83841F0809188006817809148
:100390008900780710F390E2892EA89514FFFDCF0D
:1003A0001F7E1BD0080E191EAF1E861B970B805692
:1003B0009F4F8154914080F68A9479F783E037DF2C
:1003C0001992A992CEDEC838D9F2F0DECADECA3858
:1003D00011F0ECDEC6DE07DF51C0C30103FF089554
:1003E000A3E0880F991FAA95E1F7089513FD33C084
:1003F0001F76C301903360F003FD11C0C0917E00F1
:10040000D0917F008C1B9D0B60F4CC27DD2716C09C
:10041000963028F0803C62E1960703FD78F3046093
:10042000089560917A0070917B00C8E3D0E005DF09
:10043000C73583E0D80710F0C7E5D3E0C093780054
:10044000D093790001FF03C082E0B82EA8C08CE0F1
:10045000B816BF1E0895D72D1F76C0E0D03071F3B7
:10046000CE0160E074E0E1CFC3E0769567959695A4
:100470008795CA95D1F7089588E00827809188006C
:1004800090918900609186007091870003FDECDFF8
:1004900080937E0090937F00681B790B05D080933A
:1004A0007A0090937B00089585E595E00196A895E4
:1004B0009F3F890721F0C0EEDCEFBFDEB9F708955A
:1004C000F8948CB59DB56091640078B778949038B5
:1004D00072FD6F1FC0916800D0916900A0906A0002
:1004E000809368009093690060936A0000906B00AD
:1004F00010906C0070916D00C0936B00D0936C00F5
:10050000A0926D0080199109670B97306F0728F44E
:1005100080E097E060E0D694C79490386F07A7E535
:10052000B3E0F0F0A1E0B1E27D01A0E8BBEAFF9FFB
:10053000771B0AC0771F001C111C781709061606C6
:1005400018F0781B090A160AAA1FBB1FEE1CFA94A2
:1005500089F7A095B095A63DBF0710F4A6EDB0E0D1
:100560007D0180936E0090936F006093700066959C
:1005700097958795C0916800D0916900A0906A0016
:1005800073E340D0C0937100D0937200A0927300C7
:1005900054D014FD2BCFC0917800D0917900CE15A6
:1005A000DF0508F0E701CC15DD0508F0E60187E579
:1005B00093E08C1B9D0B01F1209601F11D7F1160D2
:1005C00016FF04C0880F991FCC0FDD1F689477E2D7
:1005D0009F1377E180319F0728F0E894079771E235
:1005E0009F1377E1C09580951E01F8942C017093BC
:1005F000650027F9789408951360E8CF1C7F73E3B2
:100600006894F0CF879FC10DDF1FAF1E979FC00D6D
:10061000D11DAF1E679FD00DA11C089580916E0063
:1006200090916F0060917000C0917100D091720044
:10063000A09073000895F2DFE5DF79B7072E7B7E87
:1006400079BF70E1F894DBBDCABD78BF8CB59DB5AC
:10065000789401606091640078B7903872FD6F1FE4
:10066000C81BD90BA60AA09263000AF40E7F09BE2C
:100670000895279670E1F8948CB59DB5C80FD91FE1
:10068000DBBDCABD78BFA092630001607894089575
:1006900014FDACDE00FDFCCF0895F5BD80E488BFFD
:1006A000E1E3959AAD9A939AAC98929894980895AC
:1006B000B09BF09366008091660085FF0895E0E0AE
:1006C000F894FCE185919491F0E07894019602977A
:1006D000A8F3F894F7BBF4BBF1BB88E181BDF1BD91
:1006E0008091600081BF8CCAD8DF60DD7091770097
:1006F0007C5F7093770009F40B7F92E13ACD002480
:100700000FBEEFE5F4E0FEBFEDBF0292E036F0056C
:1007100009F4EEE1E015F005C1F781B780936000C0
:10072000A4B6F4BFF8BBF7BB80E285BB80E384BB13
:100730008AE282BB8EE381BB82E083BF81EC8EBD07
:10074000F5BD88E181BD88E081BD30DD4CDD3CDD5B
:10075000789481DDA0FAAF1226F4F5DCFBDC01DD34
:100760001EC0A2FE04C0FDDCEEDC006818C0A1FEC5
:1007700002C0FEDC14C0F894A3FE05C0E4DCE3DC98
:10078000F0DCEFDCFBCF0FDD4A2D58E040FFE2DC70
:1007900040FDEEDC09DD46955A95C1F7F4CF0D7F9B
:1007A0006DDE84E588BF89BFF0BD89E189B9549ABF
:1007B00086E880BD8CB15F9A579A81EC8EBD89B76F
:1007C000806289BFBB24137EF0936600F0936700BC
:1007D000A89514FD0AC06CDF809167008837C1F7C7
:1007E0008CE380936700BDDCF3CFA8DDC091780077
:1007F000D0917900209631F78AE0B81648F313FFBC
:100800005498812F8C7019F089B78F7D89BFB0DC27
:10081000AFDCAEDC0B7F41DF0D7FF0936600F09321
:100820006700A89514FD0EC002FD5EDFBB20C9F76E
:100830003FDF809167008E31A1F72FDFB7DC91DCBD
:1008400089DCADCFD3DDBB2061F3209631F325DF0A
:1008500080B7886080BF3798CEE8D0E06E01026034
:10086000E9D0F0937400F0937500F093760082E085
:10087000B82E86E0809362008CE08093610081E076
:1008800085BD17FD3AC0DAD087E087B9AD9A10FD73
:100890009598D2D080E087B9F894287F2260939A07
:1008A00082B3949892B38913929A7894C7D086E0D1
:1008B00087B9959A10FD9398BFD087E087B9F894CF
:1008C000287F2160AD9A82B3929892B38913AC9A33
:1008D0007894B4D080E087B9939A10FDAD98ACD0ED
:1008E00086E087B9F894287F2460959A85B3AC9800
:1008F00095B38913949A789439C09ED080E087B9D3
:10090000F894287F2160939A82B3949892B38913C4
:10091000AC9A789493D087E087B9AD9A10FD9398FC
:100920008BD086E087B9F894287F2260959A85B3AA
:10093000AC9895B38913929A789480D080E087B967
:10094000939A10FD959878D087E087B9F894287F1E
:100950002460AD9A82B3929892B38913949A789452
:100960006DD086E087B9959A10FDAD9880916100B1
:10097000803010FF69F1E601209659F18C30C8F4FF
:10098000839580936100629686ED90E06091760099
:10099000709175007C5F7093750021F4605FD1F0F9
:1009A00060937600603168F0703358F083E290E035
:1009B00008C01F7BF0937600F09375006B9687E577
:1009C00093E0C817D90710F06C015BCF6E0159CFC7
:1009D00022CF3DCF62DE0D7FE6DBE5DBC9DB06DD46
:1009E0002096D1F7DCCEE1E320FD959A21FDAD9A6A
:1009F00022FD939AAC989298949881E0809362003B
:100A000068C016FD0FC0BC3068F0BBE0AB1708F43F
:100A1000AB2F04DEC80FD91FA61EC80FD91FA61EF4
:100A20000CDE4AC0F093610070917400715F16FD96
:100A30007093740010644DC01F7D01C010628091DE
:100A40006200815050F08093620016FF18C0C0E031
:100A5000DFEFAF2E0EDEA3E02EC0E13309F4E3E3B7
:100A600016FD43C07BE1E7DD13DE79E5E4DD00FF41
:100A7000BACF14FDBBDC68B1612765FDF8CFCEDDD0
:100A8000A92FB62FB695A795B695A795A330BF0702
:100A900050F051F0AA31BF0708F0AAE1AC3020F0C5
:100AA00073E3C9DD08C0A3E0C80FD91FA61EC80F95
:100AB000D91FA61EC2DDBA2F00FFA3CF14FD96DCFE
:100AC00068B1612765FD03C0AB17AF1FF5CFAA95CD
:100AD00099F7F6DC16FFDCDD809162008F131E7F34
:100AE000BF1208958F918F9196CEC0E0D0E070E054
:100AF000A72E80916100823030F47091740080E004
:100B000090E860E07FDDB5DDC3DDC0E0D8EB7BE0E1
:0A0B1000A72EAFDDAFEFCFCFF2CD7F
:101C0000E4E0FFE5FEBFEDBF00E0ECEBFEE0C0E886
:101C1000D0E0A0E6B0E042E045BD5CEE539571F047
:101C200040EC04BD48BFA03619F0E8B6E6FC46C05B
:101C3000B099F9CF04BD48BFE8B6E6FCE1C1B09B5E
:101C4000FBCF04BD48BFE8B6E6FCE8CFB099FBCFB8
:101C500034B404BD48BFE8B6E6FCD2C1B09BFBCFAC
:101C600024B4022C030C802C07940694402C069478
:101C70008008809420943094409460EE83E084BC8B
:101C800048BFE8B6E6FCBCC1B09BFBCF84BC48BFF4
:101C9000E8B6E6FCC3CFB099FBCF0894E8B6E6FC03
:101CA00023C0B09BFBCFE8B6E6FCB8CFB099FBCF22
:101CB0008894E8B6E6FC18C0B09BFBCF43BC87E134
:101CC000C09AB89A34BC48BFE8B6E6FEFDCFC098CB
:101CD00024BC48BFE8B6E6FEFDCF8A9589F7C0E68A
:101CE000D0E060E081E00BC0679548F6815068F570
:101CF0005CEE0994CA17DB07D1F0699188E066951C
:101D0000C09A34BC48BFE8B610F0E7FC08BBE6FE5A
:101D1000FACFC09808F0C09A24BC48BFE8B610F0CB
:101D2000E7FC08BBE6FEFACF8A9549F7E3CFC09AF5
:101D300034BC48BFC0E8D0E0A0E6B0E0E8B6E7FEBB
:101D4000FDCFB89808BB6ACF80E060E898CFECEB95
:101D5000FEE0C0E8D0E0F8CF009000000090000066
:101D60000090000000900000009000000090000033
:101D70000090000000900000000000006B3121F78F
:101D8000562E3796E1CF962E56263496DDCF762EF8
:101D900056263496D9CF662E56263496D5CF6E3039
:101DA000B1F656263596D0CF69935626CF3584E0C6
:101DB000D80768F681E0681A700A09F43C96C4CF27
:101DC0006511C5CFC0E8D0E0699199918991FD0175
:101DD0007BE170839182028372E073837EE074837F
:101DE0006583068317966130A1F48BE0838388E0D6
:101DF0008D93EF01ECEDFFE185918D93E43EE1F7EA
:101E0000FE01819161918627EA17FB07D9F78D932F
:101E10009ECF6D3151F5792F90E0039683839283A5
:101E200003970D938A95E9F789916991603380074B
:101E300094E0790779F460878991803059F4699149
:101E400060308EE131F0613083E919F0623087E073
:101E500009F482870D93D5CF8017900709F5D990A3
:101E6000C9905601AA0CBB1CCCCF6330E1F06230A4
:101E700041F2603131F2613121F2663069F3623151
:101E8000F1F1833F73E0970758F4643109F166314B
:101E900069F127966531C1F16331F9F10000000065
:101EA00080EC8683AECF90398FE071F0913982E07B
:101EB00059F092398AE041F0943982E329F0903860
:101EC00080E011F0913861F78D9383E0838399CF9F
:101ED00049D0EF01F5018FD076FDFDCF65916D936F
:101EE0000197E1F75F01FE010D938BCF3BD011E02D
:101EF0003ED06DB36D930197D9F70D9382CF47D044
:101F0000000080E092E0689416E06FEF0EF06991B7
:101F10002ED00197D1F7E89474CF8F7F61E07F01D5
:101F2000F5010990199068D032960297D1F70F0108
:101F3000F501500163E0E03C7FE1F70719F058D06C
:101F4000F7015FCF0BD065E009D061E107D0F8CF92
:101F500077B770FDFDCFE199FECF0895F9DF67BF38
:101F6000E8950895039692838383039708953AD062
:101F7000DFBACEBA0894C01ED01E762FE09A6DB399
:101F8000671312FF08957DBBE29A1CBB08957F0181
:101F9000E0E0FCE163E0E054F0402ED0E1F76F01B7
:101FA000F70108950000000000000000000000009C
:101FB0000000000000000000000000000000000021
:101FC000687474703A2F2F6769746875622E636F36
:101FD0006D2F73696D2D2F7467792F00415652490B
:101FE00053505F3277B770FDFDCFE199FECF089572
:101FF00003D065E001D061E1F5DF67BFE8950895A2
:00000001FF
