:020000020000FC
:10000000C2C45DC018951895099459C036C018959A
:100010003EC01895189573C01895189518951895A1
:1000200018956DC01895697A40744042405B9FB640
:100030008A9409F4E1E29FBE18959FB68A949FBE08
:10004000189520FDC29A21FDC19A22FDC09AEDE2C9
:10005000832C24BC1895A89518958F12EECFA895DF
:1000600011FDEFCFE0916500852C20FDC29821FDA8
:10007000C19822FDC09844BC18959FB6409163007A
:10008000415008F40E7F409363009FBE18959FB6C1
:10009000409164004395409364004F7019F4BB2075
:1000A00019F0BA949FBE189540916600439540930D
:1000B000660040916700439540936700F3CF4CB5CD
:1000C0005DB5829B0DC09FB65A5659BD48BD42E0F2
:1000D00045BF48E048BF9FBE18959FB604600BC05F
:1000E00098B693FCFACF9FB63A0148B559B5565920
:1000F000641A750A106143E045BF9FBE189590E5EC
:1001000078EC949AC29A17D0E1F7089594E674EBCC
:10011000939AC19A10D0E1F7089598E770EA959AFA
:10012000C09A09D0E1F708959CE87CE8939AC29AB6
:1001300002D0E1F70895F2BF82B78032E8F362B3EC
:10014000677C62BB68B3687F68BB60E1F2BFA8955B
:1001500082B78717E8F36A95C9F79A95089500D092
:1001600000D000D09FE060E1F2BF81E088BFA89599
:1001700088B780FFFDCF6A95B9F79A95A1F70895E2
:10018000809184009091850089569A4739F0C4E89F
:10019000D0E0E6E285918993CC38E1F7089580912B
:1001A000600081BF0F7DC4E8D0E080E890E0A895B2
:1001B000E199FDCF67B760FDFACFCC3881F09FBBE6
:1001C0008EBB0196E09A6DB317F06993F0CF7991E9
:1001D0007DBBF894E29A6713E19A7894E8CFC2DF86
:1001E0008FEF81BF0895000C111CAA1C8A95D9F7C6
:1001F0000895869FA12C969FA00CC11DDF1F879F8D
:10020000A00CC11DDF1F979FC00DD11D08951F7E3B
:10021000C3019053660B602763FD8AC007FD4DC084
:10022000C6E8D0E001C09BDF3FD0BC01A895FF9F8E
:10023000AA24C63831F49FE160348BE5780798F43E
:100240003CC080918600681780918700780760F72E
:1002500092E2C83841F08091880068178091890047
:10026000780710F390E2892EA89514FFFDCF1F7E2A
:100270001BD0080E191EAF1E861B970B80569F4F72
:100280008154914080F68A9479F783E0ACDF19922B
:10029000A99243DFC838D9F265DF3FDFCA3811F0D1
:1002A00061DF3BDF7CDF46C0C30103FF0895A3E0AD
:1002B000880F991FAA95E1F708951F76C30190331F
:1002C00060F003FD11C0C0917E00D0917F008C1BB7
:1002D0009D0B60F4CC27DD2716C0963028F0803CBB
:1002E00062E1960703FD78F30460089560917A0057
:1002F00070917B00C8E3D0E07CDFC73583E0D8078E
:1003000010F0C7E5D3E0C0937800D093790001FFE7
:1003100003C082E0B82E9FC08CE0B816BF1E0895BF
:10032000C3E07695679596958795CA95D1F7089518
:1003300088E008278091880090918900609186006C
:100340007091870003FDECDF80937E0090937F0027
:10035000681B790B05D080937A0090937B000895F9
:1003600085E595E00196A8959F3F890721F0C0EEAD
:10037000DCEF3FDFB9F70895F8948CB59DB5609137
:10038000640078B77894903872FD6F1FC091680050
:10039000D0916900A0906A008093680090936900F2
:1003A00060936A0000906B0010906C0070916D007B
:1003B000C0936B00D0936C00A0926D0080199109DE
:1003C000670B97306F0728F480E097E060E0D694E1
:1003D000C79490386F07A7E5B3E0F0F0A1E0B1E271
:1003E0007D01A0E8BBEAFF9F771B0AC0771F001CB6
:1003F000111C78170906160618F0781B090A160A48
:10040000AA1FBB1FEE1CFA9489F7A095B095A63DD4
:10041000BF0710F4A6EDB0E07D0180936E009093CD
:100420006F0060937000669597958795C0916800FE
:10043000D0916900A0906A0073E335D0C093710039
:10044000D0937200A092730049D014FD36CFC091B2
:100450007800D0917900CE15DF0508F0E701CC15C2
:10046000DD0508F0E60187E593E08C1B9D0BB1F0FC
:100470002096B1F01D7F116016FF04C0880F991FF0
:10048000CC0FDD1F71E29F1377E1C09580951E01AF
:10049000F8942C0170936500789408951360F2CF5E
:1004A0001C7F7DE2F2CF879FC10DDF1FAF1E979F9C
:1004B000C00DD11DAF1E679FD00DA11C0895809166
:1004C0006E0090916F0060917000C0917100D091AA
:1004D0007200A09073000895F2DFE5DF79B7072E70
:1004E0007B7E79BF70E1F894DBBDCABD78BF8CB567
:1004F0009DB5789401606091640078B7903872FD82
:100500006F1FC81BD90BA60AA09263000AF40E7FC6
:1005100009BE0895279670E1F8948CB59DB5C80F73
:10052000D91FDBBDCABD78BFA0926300016078947B
:10053000089514FDC2DE00FDFCCF0895F5BD80E4F2
:1005400088BFEBE282B3877C82BB88B3887F88BB9D
:100550000895829BF09366008091660085FF089560
:10056000E0E0F894FCE185919491F0E078940196B4
:100570000297A8F3F894F7BBF4BBF1BB88E181BD07
:10058000F1BD8091600081BF3BCBD8DFEBDD709186
:1005900077007C5F7093770009F40B7F92E1C5CD03
:1005A00000240FBEEFE5F4E0FEBFEDBF0292E0369F
:1005B000F00509F4EEE1E015F005C1F781B780938D
:1005C0006000A4B6F4BFF8BB87E087BBF5BBF4BB03
:1005D000F2BB88E381BB82E083BF81E08EBDF5BDC5
:1005E00088E181BD88E081BDBDDDD9DDC9DD7894BC
:1005F000A0FAAF1226F483DD89DD8FDD1EC0A2FED6
:1006000004C08BDD7CDD006818C0A1FE02C08CDD5B
:1006100014C0F894A3FE05C072DD71DD7EDD7DDDC2
:10062000FBCF9DDD4A2D58E040FF70DD40FD7CDDB5
:1006300097DD46955A95C1F7F4CF0D7F7BDE84E5B3
:1006400088BF89BF83E085BF80E48BBFBB24137E56
:10065000F0936600F0936700A89514FD0AC079DF57
:10066000809167008837C1F78CE38093670055DD80
:10067000F3CFCDDDC0917800D0917900209631F78D
:100680008AE0B81648F3812F8C7009F0FBBF4CDD6F
:100690004BDD4ADD0B7F52DF0D7FF0936600F09358
:1006A0006700A89514FD0EC002FD6FDFBB20C9F7DF
:1006B00050DF809167008E31A1F740DF53DD2DDDE3
:1006C00025DDBBCFFADDBB2061F3209631F336DFA9
:1006D00080B7886080BFCEE8D0E06E010260E1D0D4
:1006E000F0937400F0937500F093760082E0B82EDA
:1006F00086E0809362008CE08093610081E085BD9C
:1007000017FD39C0D2D084E087B93798949810FD8E
:10071000959AC9D0379AF894287F226088B3C098F8
:1007200098B38913C19A7894C0D085E087B9379877
:10073000959810FD939AB7D084E087B93798F894CC
:10074000287F216088B3C19898B38913C29A78949E
:10075000ACD0379A939810FD949AA5D085E087B9CC
:100760003798F894287F246088B3C29898B3891387
:10077000C09A789438C097D0379AF894287F21602F
:1007800088B3C09898B38913C29A78948ED084E0C5
:1007900087B93798949810FD939A85D085E087B9EA
:1007A0003798F894287F226088B3C29898B3891349
:1007B000C19A78947AD0379A939810FD959A73D00D
:1007C00084E087B93798F894287F246088B3C1986B
:1007D00098B38913C09A789468D085E087B9379820
:1007E000959810FD949A80916100803010FF69F116
:1007F000E601209659F18C30C8F48395809361000E
:10080000629686ED90E060917600709175007C5F55
:100810007093750021F4605FD1F0609376006031D1
:1008200068F0703358F083E290E008C01F7BF093CB
:100830007600F09375006B9687E593E0C817D907AB
:1008400010F06C015DCF6E015BCF25CF40CF76DE1F
:100850000D7F85DC84DC68DC30DD2096D1F7EDCEC1
:10086000EBE288B3887F88BB81E08093620068C038
:1008700016FD0FC0BC3068F0BBE0AB1708F4AB2F1F
:100880001EDEC80FD91FA61EC80FD91FA61E26DE42
:100890004AC0F093610070917400715F16FD70930F
:1008A000740010644DC01F7D01C010628091620011
:1008B000815050F08093620016FF18C0C0E0DFEF57
:1008C000AF2E28DEA3E02EC0EB3209F4EDE216FDD8
:1008D00043C07BE101DE2DDE79E5FEDD00FFC0CF08
:1008E00014FDEBDC68B1612765FDF8CFE8DDA92FC9
:1008F000B62FB695A795B695A795A330BF0750F02C
:1009000051F0AA31BF0708F0AAE1AC3020F073E340
:10091000E3DD08C0A3E0C80FD91FA61EC80FD91F6A
:10092000A61EDCDDBA2F00FFA3CF14FDC6DC68B124
:10093000612765FD03C0AB17AF1FF5CFAA9599F7E7
:100940001BDD16FFF6DD809162008F131E7FBF1244
:1009500008958F918F919FCEC0E0D0E070E0A72ED8
:1009600080916100823030F47091740080E090E8F2
:1009700060E099DDCFDDDDDDC0E0D8EB7BE0A72EC8
:08098000C9DDAFEFCFCF0CCEB3
:101C0000E4E0FFE5FEBFEDBF00E0ECEBFEE0C0E886
:101C1000D0E0A0E6B0E042E045BD5CEE539571F047
:101C200040EC04BD48BFA03619F0E8B6E6FC46C05B
:101C30008299F9CF04BD48BFE8B6E6FCE1C1829BBA
:101C4000FBCF04BD48BFE8B6E6FCE8CF8299FBCFE6
:101C500034B404BD48BFE8B6E6FCD2C1829BFBCFDA
:101C600024B4022C030C802C07940694402C069478
:101C70008008809420943094409460EE83E084BC8B
:101C800048BFE8B6E6FCBCC1829BFBCF84BC48BF22
:101C9000E8B6E6FCC3CF8299FBCF0894E8B6E6FC31
:101CA00023C0829BFBCFE8B6E6FCB8CF8299FBCF7E
:101CB0008894E8B6E6FC18C0829BFBCF43BC87E162
:101CC000929A8A9A34BC48BFE8B6E6FEFDCF929855
:101CD00024BC48BFE8B6E6FEFDCF8A9589F7C0E68A
:101CE000D0E060E081E00BC0679548F6815068F570
:101CF0005CEE0994CA17DB07D1F0699188E066951C
:101D0000929A34BC48BFE8B610F0E7FC02BBE6FE8E
:101D1000FACF929808F0929A24BC48BFE8B610F027
:101D2000E7FC02BBE6FEFACF8A9549F7E3CF929A29
:101D300034BC48BFC0E8D0E0A0E6B0E0E8B6E7FEBB
:101D4000FDCF8A9802BB6ACF80E060E898CFECEBC9
:101D5000FEE0C0E8D0E0F8CF009000000090000066
:101D60000090000000900000009000000090000033
:101D70000090000000900000000000006B3121F78F
:101D8000562E3796E1CF962E56263496DDCF762EF8
:101D900056263496D9CF662E56263496D5CF6E3039
:101DA000B1F656263596D0CF69935626CF3584E0C6
:101DB000D80768F681E0681A700A09F43C96C4CF27
:101DC0006511C5CFC0E8D0E0699199918991FD0175
:101DD0007BE170839182028372E073837EE074837F
:101DE0006583068317966130A1F48BE0838388E0D6
:101DF0008D93EF01ECEDFFE185918D93E43EE1F7EA
:101E0000FE01819161918627EA17FB07D9F78D932F
:101E10009ECF6D3151F5792F90E0039683839283A5
:101E200003970D938A95E9F789916991603380074B
:101E300094E0790779F460878991803059F4699149
:101E400060308EE131F0613083E919F0623087E073
:101E500009F482870D93D5CF8017900709F5D990A3
:101E6000C9905601AA0CBB1CCCCF6330E1F06230A4
:101E700041F2603131F2613121F2663069F3623151
:101E8000F1F1833F73E0970758F4643109F166314B
:101E900069F127966531C1F16331F9F10000000065
:101EA00080EC8683AECF90398FE071F0913982E07B
:101EB00059F092398AE041F0943982E329F0903860
:101EC00080E011F0913861F78D9383E0838399CF9F
:101ED00049D0EF01F5018FD076FDFDCF65916D936F
:101EE0000197E1F75F01FE010D938BCF3BD011E02D
:101EF0003ED06DB36D930197D9F70D9382CF47D044
:101F0000000080E092E0689416E06FEF0EF06991B7
:101F10002ED00197D1F7E89474CF8F7F61E07F01D5
:101F2000F5010990199068D032960297D1F70F0108
:101F3000F501500163E0E03C7FE1F70719F058D06C
:101F4000F7015FCF0BD065E009D061E107D0F8CF92
:101F500077B770FDFDCFE199FECF0895F9DF67BF38
:101F6000E8950895039692838383039708953AD062
:101F7000DFBACEBA0894C01ED01E762FE09A6DB399
:101F8000671312FF08957DBBE29A1CBB08957F0181
:101F9000E0E0FCE163E0E054F0402ED0E1F76F01B7
:101FA000F70108950000000000000000000000009C
:101FB0000000000000000000000000000000000021
:101FC000687474703A2F2F6769746875622E636F36
:101FD0006D2F73696D2D2F7467792F00415652490B
:101FE00053505F3277B770FDFDCFE199FECF089572
:101FF00003D065E001D061E1F5DF67BFE8950895A2
:00000001FF
