:020000020000FC
:100000008AC45DC018951895099459C036C01895D2
:100010003EC01895189573C01895189518951895A1
:1000200018956DC01895697A40744042405B9FB640
:100030008A9409F4E1E29FBE18959FB68A949FBE08
:10004000189520FD909A21FD919A22FD939AEDE258
:10005000832C24BC1895A89518958F12EECFA895DF
:1000600011FDEFCFE0916500852C20FD909821FDDA
:10007000919822FD939844BC18959FB640916300D7
:10008000415008F40E7F409363009FBE18959FB6C1
:10009000409164004395409364004F7019F4BB2075
:1000A00019F0BA949FBE189540916600439540930D
:1000B000660040916700439540936700F3CF4CB5CD
:1000C0005DB5829B0DC09FB65A5659BD48BD42E0F2
:1000D00045BF48E048BF9FBE18959FB604600BC05F
:1000E00098B693FCFACF9FB63A0148B559B5565920
:1000F000641A750A106143E045BF9FBE189590E5EC
:1001000078EC979A909A17D0E1F7089594E674EBFB
:10011000949A919A10D0E1F7089598E770EA959A29
:10012000939A09D0E1F708959CE87CE8949A909A14
:1001300002D0E1F70895F2BF82B78032E8F362B3EC
:100140006F7462BB62B3647F62BB60E1F2BFA8956B
:1001500082B78717E8F36A95C9F79A95089500D092
:1001600000D000D09FE060E1F2BF81E088BFA89599
:1001700088B780FFFDCF6A95B9F79A95A1F70895E2
:10018000809184009091850089569A4739F0C4E89F
:10019000D0E0E6E285918993CC38E1F7089580912B
:1001A000600081BF0F7DC4E8D0E080E890E0A895B2
:1001B000E199FDCF67B760FDFACFCC3881F09FBBE6
:1001C0008EBB0196E09A6DB317F06993F0CF7991E9
:1001D0007DBBF894E29A6713E19A7894E8CFC2DF86
:1001E0008FEF81BF0895000C111CAA1C8A95D9F7C6
:1001F0000895869FA12C969FA00CC11DDF1F879F8D
:10020000A00CC11DDF1F979FC00DD11D08951F7E3B
:10021000C3019053660B602763FD47C01F76C3017F
:100220009033A8F003FD1AC0C0917E00D0917F00EA
:100230008C1B9D0BA8F41068909581959F4F609141
:100240007C0070917D0010C0CC27DD2719C096304E
:1002500028F0803C62E1960703FD30F304600895C6
:1002600060917A0070917B00805891406AF3C8E3F6
:10027000D0E0BFDFC73088E0D80710F0C7E0D8E093
:10028000C0937800D093790001FF03C082E0B82EBC
:10029000B3C08CE0B816BF1E0895C3E0769567958D
:1002A00096958795CA95D1F7089588E0082780919B
:1002B0008A0090918B00609186007091870003FD09
:1002C000ECDF80937E0090937F00681B790B16D043
:1002D00080937A0090937B0060918A0070918B00EC
:1002E000809188009091890003FDD7DF681B790B0E
:1002F00005D080937C0090937D00089560587140F4
:1003000085E59DE00196A8959F3F890721F0C0E310
:10031000D8EF6FDFB9F70895F8948CB59DB560916B
:10032000640078B77894903872FD6F1FC0916800B0
:10033000D0916900A0906A00809368009093690052
:1003400060936A0000906B0010906C0070916D00DB
:10035000C0936B00D0936C00A0926D00801991093E
:10036000670B97306F0728F480E097E060E0D69441
:10037000C79490386F07A7E0B8E0F8F0A4E0B1E2C6
:100380007D01A0E8B3E0FF9F771B0AC0771F001C28
:10039000111C78170906160618F0781B090A160AA8
:1003A000AA1FBB1FEE1CFA9489F7A095B095A23046
:1003B00072E0B70710F4A2E0B2E07D0180936E0016
:1003C00090936F0060937000669597958795C091A4
:1003D0006800D0916900A0906A0073E32FD0C093A9
:1003E0007100D0937200A092730043D014FD16CF19
:1003F000C0917800D0917900CE15DF0508F0E701B3
:10040000CC15DD0508F0E60187E098E08C1B9D0B1C
:1004100081F0209681F01D7F116071E29F1377E1DA
:10042000C09580951E01F8942C0170936500789416
:1004300008951360F2CF1C7F7DE2F2CF879FC10D3C
:10044000DF1FAF1E979FC00DD11DAF1E679FD00D40
:10045000A11C089580916E0090916F0060917000D2
:10046000C0917100D0917200A09073000895F2DFE6
:10047000E5DF79B7072E7B7E79BF70E1F894DBBDAD
:10048000CABD78BF8CB59DB5789401606091640059
:1004900078B7903872FD6F1FC81BD90BA60AA092BF
:1004A00063000AF40E7F09BE0895279670E1F89460
:1004B0008CB59DB5C80FD91FDBBDCABD78BFA09252
:1004C000630001607894089514FDA8DE00FDFCCF60
:1004D0000895F5BD80E488BFEBE282B38F7482BBE0
:1004E00082B3847F82BB0895829BF09366008091E3
:1004F000660085FF0895E0E0F894FCE18591949111
:10050000F0E0789401960297A8F3F894F7BBF4BB57
:10051000F1BB88E181BDF1BD8091600081BF70CBEE
:10052000D8DF20DE709177007C5F7093770009F44C
:100530000B7F92E1FACD00240FBEEFE5F4E0FEBFA1
:10054000EDBF0292E036F00509F4EEE1E015F005AA
:10055000C1F781B780936000A4B6F4BFF8BBF7BBC6
:10056000F5BBF4BBF2BB8BEB81BB82E083BF81E0C8
:100570008EBDF5BD88E181BD88E081BDF3DD0FDE74
:10058000FFDD7894A0FAAF1226F4B9DDBFDDC5DD3A
:100590001EC0A2FE04C0C1DDB2DD006818C0A1FE0D
:1005A00002C0C2DD14C0F894A3FE05C0A8DDA7DD1B
:1005B000B4DDB3DDFBCFD3DD4A2D58E040FFA6DD2F
:1005C00040FDB2DDCDDD46955A95C1F7F4CF0D7FE4
:1005D0006EDE84E588BF89BF83E085BF80E48BBF82
:1005E000BB24137EF0936600F0936700A89514FD7A
:1005F0000AC07ADF809167008837C1F78CE3809367
:1006000067008BDDF3CF03DEC0917800D0917900D5
:10061000209631F78AE0B81648F3812F8C7009F0E4
:10062000FBBF82DD81DD80DD0B7F53DF0D7FF0932B
:100630006600F0936700A89514FD0EC002FD70DF00
:10064000BB20C9F751DF809167008E31A1F741DFF0
:1006500089DD63DD5BDDBBCFE1DDBB2061F320968F
:1006600031F337DF80B7886080BF3798C6E5D1E0C7
:100670006E010260DED0F0937400F0937500F09389
:10068000760082E0B82E86E0809362008CE0809352
:10069000610081E085BD17FD37C0CFD083E087B909
:1006A000979810FD959AC7D084E087B9F894287F71
:1006B000226082B3939892B38913919A7894BDD0B3
:1006C00082E087B9959810FD949AB5D083E087B9F8
:1006D000F894287F216082B3919892B38913909AFD
:1006E0007894ABD084E087B9949810FD979AA3D002
:1006F00082E087B9F894287F246082B3909892B3FF
:100700008913939A789436C096D084E087B9F89488
:10071000287F216082B3939892B38913909A78943A
:100720008CD083E087B9979810FD949A84D082E0AA
:1007300087B9F894287F226082B3909892B3891386
:10074000919A78947AD084E087B9949810FD959A1C
:1007500072D083E087B9F894287F246082B391989F
:1007600092B38913939A789468D082E087B9959868
:1007700010FD979A80916100803010FF71F1E601C1
:10078000209661F18C30C8F4839580936100AB961C
:1007900082E092E060917600709175007C5F7093CA
:1007A000750021F4605FD9F060937600603170F0DD
:1007B000703360F085E590E009C01F7BF093760010
:1007C000F0937500CF5BDF4F87E098E0C817D9073B
:1007D00010F06C0160CF6E015ECF27CF42CF79DE83
:1007E0000D7FBDDCBCDCA0DC19DD2096D1F7EFCE9F
:1007F000EBE282B3847F82BB81E08093620068C0B9
:1008000016FD0FC0BC3068F0BBE0AB1708F4AB2F8F
:1008100021DEC80FD91FA61EC80FD91FA61E29DEAC
:100820004AC0F093610070917400715F16FD70937F
:10083000740010644DC01F7D01C010628091620081
:10084000815050F08093620016FF18C0C0E0DFEFC7
:10085000AF2E2BDEA3E02EC0EB3209F4EDE216FD45
:1008600043C07BE104DE30DE79E501DE00FFC0CF6E
:1008700014FDD4DC68B1612765FDF8CFEBDDA92F4D
:10088000B62FB695A795B695A795A330BF0750F09C
:1008900051F0A034BF0708F0A0E4AC3020F073E3BF
:1008A000E6DD08C0A3E0C80FD91FA61EC80FD91FD8
:1008B000A61EDFDDBA2F00FFA3CF14FDAFDC68B1A9
:1008C000612765FD03C0AB17AF1FF5CFAA9599F758
:1008D00023DD16FFF9DD809162008F131E7FBF12AA
:1008E00008958F918F91A1CEC0E0D0E070E0A72E47
:1008F00080916100823030F47091740080E090E863
:1009000060E09CDDD2DDE0DDC0E0D8EB7BE0A72E2F
:08091000CCDDAFEFCFCF0FCE1D
:101C0000E4E0FFE5FEBFEDBF00E0ECEBFEE0C0E886
:101C1000D0E0A0E6B0E042E045BD5CEE539571F047
:101C200040EC04BD48BFA03619F0E8B6E6FC46C05B
:101C30008299F9CF04BD48BFE8B6E6FCE1C1829BBA
:101C4000FBCF04BD48BFE8B6E6FCE8CF8299FBCFE6
:101C500034B404BD48BFE8B6E6FCD2C1829BFBCFDA
:101C600024B4022C030C802C07940694402C069478
:101C70008008809420943094409460EE83E084BC8B
:101C800048BFE8B6E6FCBCC1829BFBCF84BC48BF22
:101C9000E8B6E6FCC3CF8299FBCF0894E8B6E6FC31
:101CA00023C0829BFBCFE8B6E6FCB8CF8299FBCF7E
:101CB0008894E8B6E6FC18C0829BFBCF43BC87E162
:101CC000929A8A9A34BC48BFE8B6E6FEFDCF929855
:101CD00024BC48BFE8B6E6FEFDCF8A9589F7C0E68A
:101CE000D0E060E081E00BC0679548F6815068F570
:101CF0005CEE0994CA17DB07D1F0699188E066951C
:101D0000929A34BC48BFE8B610F0E7FC02BBE6FE8E
:101D1000FACF929808F0929A24BC48BFE8B610F027
:101D2000E7FC02BBE6FEFACF8A9549F7E3CF929A29
:101D300034BC48BFC0E8D0E0A0E6B0E0E8B6E7FEBB
:101D4000FDCF8A9802BB6ACF80E060E898CFECEBC9
:101D5000FEE0C0E8D0E0F8CF009000000090000066
:101D60000090000000900000009000000090000033
:101D70000090000000900000000000006B3121F78F
:101D8000562E3796E1CF962E56263496DDCF762EF8
:101D900056263496D9CF662E56263496D5CF6E3039
:101DA000B1F656263596D0CF69935626CF3584E0C6
:101DB000D80768F681E0681A700A09F43C96C4CF27
:101DC0006511C5CFC0E8D0E0699199918991FD0175
:101DD0007BE170839182028372E073837EE074837F
:101DE0006583068317966130A1F48BE0838388E0D6
:101DF0008D93EF01ECEDFFE185918D93E43EE1F7EA
:101E0000FE01819161918627EA17FB07D9F78D932F
:101E10009ECF6D3151F5792F90E0039683839283A5
:101E200003970D938A95E9F789916991603380074B
:101E300094E0790779F460878991803059F4699149
:101E400060308EE131F0613083E919F0623087E073
:101E500009F482870D93D5CF8017900709F5D990A3
:101E6000C9905601AA0CBB1CCCCF6330E1F06230A4
:101E700041F2603131F2613121F2663069F3623151
:101E8000F1F1833F73E0970758F4643109F166314B
:101E900069F127966531C1F16331F9F10000000065
:101EA00080EC8683AECF90398FE071F0913982E07B
:101EB00059F092398AE041F0943982E329F0903860
:101EC00080E011F0913861F78D9383E0838399CF9F
:101ED00049D0EF01F5018FD076FDFDCF65916D936F
:101EE0000197E1F75F01FE010D938BCF3BD011E02D
:101EF0003ED06DB36D930197D9F70D9382CF47D044
:101F0000000080E092E0689416E06FEF0EF06991B7
:101F10002ED00197D1F7E89474CF8F7F61E07F01D5
:101F2000F5010990199068D032960297D1F70F0108
:101F3000F501500163E0E03C7FE1F70719F058D06C
:101F4000F7015FCF0BD065E009D061E107D0F8CF92
:101F500077B770FDFDCFE199FECF0895F9DF67BF38
:101F6000E8950895039692838383039708953AD062
:101F7000DFBACEBA0894C01ED01E762FE09A6DB399
:101F8000671312FF08957DBBE29A1CBB08957F0181
:101F9000E0E0FCE163E0E054F0402ED0E1F76F01B7
:101FA000F70108950000000000000000000000009C
:101FB0000000000000000000000000000000000021
:101FC000687474703A2F2F6769746875622E636F36
:101FD0006D2F73696D2D2F7467792F00415652490B
:101FE00053505F3277B770FDFDCFE199FECF089572
:101FF00003D065E001D061E1F5DF67BFE8950895A2
:00000001FF
